S01E0000436172436F6E74726F6C5F436865636B5F476C75636B2E737265637D
S11300000C9434000C9446000C9446000C94460066
S11300100C9446000C9446000C9446000C94460044
S11300200C9446000C9446000C9446000C94590021
S11300300C9446000C9446000C9446000C94460024
S11300400C9446000C9446000C9446000C94460014
S11300500C9446000C9446000C9446000C94460004
S11300600C9446000C94460011241FBECFEFD8E038
S1130070DEBFCDBF21E0A0E0B1E001C01D92A630FB
S1130080B207E1F70E94F7000C9425010C940000DC
S1130090E1E8F0E080818D6080838AE196E09093CE
S11300A0890080938800EFE6F0E08081826080839D
S11300B008951F920F920FB60F9211242F938F93CE
S11300C09F934B993FC044C08091040190910501D6
S11300D0019690930501809304018C32914090F134
S11300E08BB180648BB94C9BFECF4C99FECF8BB106
S11300F08F7B8BB98FEF93E224EF815090402040A7
S1130100E1F700C000004D9B1DC016C080910201A4
S113011090910301019690930301809302018C3224
S1130120914050F08BB180648BB94C9BFECF4C99BD
S1130130FECF8BB18F7B8BB94D99E8CF1092030121
S1130140109202014B99C0CF109205011092040144
S11301504D991DC01EC0809102019091030101962A
S113016090930301809302018C32914080F00CC083
S11301708BB180648BB94C9BFECF4C99FECF8BB175
S11301808F7B8BB99F5F01C090E0923088F34D99CB
S1130190E2CF109205011092040110920301109213
S11301A002019F918F912F910F900FBE0F901F907E
S11301B01895ECE7F0E0808180648083EAE7F0E062
S11301C08081876880830895EAE7F0E08081806415
S11301D0808380917A0086FDFCCFEAE7F0E080819D
S11301E08F7B8083809178009091790008951AB86C
S11301F08AB1806C8AB91BB88BB18F738BB94C9957
S113020004C008C08BB180648BB94C99FBCF8BB10F
S11302108F7B8BB90E94D900F8940E94480078948F
S11302200E94E40090930101809300018D3222E04A
S1130230920720F48BB180688BB9F2CF8E33924051
S111024078F38BB18F778BB9EBCFF894FFCFA7
S9030000FC
