S01E0000436172436F6E74726F6C5F436865636B5F476C75636B2E737265637D
S11300000C9434000C9451000C9451000C94510045
S11300100C9451000C9451000C9451000C94510018
S11300200C9451000C9451000C9451000C946400F5
S11300300C9451000C9451000C9451000C945100F8
S11300400C9451000C9451000C9451000C945100E8
S11300500C9451000C9451000C9451000C945100D8
S11300600C9451000C94510011241FBECFEFD8E022
S1130070DEBFCDBF11E0A0E0B1E0EAECF2E002C0E7
S113008005900D92A230B107D9F721E0A2E0B1E0CA
S113009001C01D92A830B207E1F70E9435010C940B
S11300A063010C940000E1E8F0E080818D608083BE
S11300B08AE196E09093890080938800EFE6F0E06F
S11300C080818260808308951F920F920FB60F92F1
S11300D011242F933F934F935F936F937F938F9349
S11300E09F934B9965C06DC0809106019091070163
S11300F0019690930701809306018C3221E09207C8
S113010008F456C020910001213069F48BB1806459
S11301108BB94C9BFECF4C99FECF8BB18F7B8BB9A7
S11301201092000126C0211124C08C52914021E07C
S113013030E0803543EC940710F420E030E060E5D3
S113014073EC269FA001279F500D369F500D11245C
S11301508417950771F48BB180648BB94C9BFECFE7
S11301604C99FECF8BB18F7B8BB910920701109203
S113017006014D9B1DC016C080910401909105019C
S1130180019690930501809304018C32914050F0C4
S11301908BB180648BB94C9BFECF4C99FECF8BB155
S11301A08F7B8BB94D99E8CF109205011092040111
S11301B04B999ACF109207011092060181E0809327
S11301C000014D991DC01EC080910401909105014C
S11301D0019690930501809304018C32914080F044
S11301E00CC08BB180648BB94C9BFECF4C99FECF75
S11301F08BB18F7B8BB99F5F01C090E0933088F304
S11302004D99E2CF10920701109206011092050158
S1130210109204019F918F917F916F915F914F9103
S11302203F912F910F900FBE0F901F901895ECE700
S1130230F0E0808180648083EAE7F0E08081876871
S113024080830895EAE7F0E0808180648083809170
S11302507A0086FDFCCFEAE7F0E080818F7B808323
S1130260809178009091790008951AB88AB1806CD1
S11302708AB91BB88BB18F738BB94C9904C008C071
S11302808BB180648BB94C99FBCF8BB18F7B8BB9CD
S11302900E941701F8940E94530078940E9422014E
S11302A090930301809302018D3222E0920720F49F
S11302B08BB180688BB9F2CF8E33924078F38BB1D7
S10D02C08F778BB9EBCFF894FFCFD2
S10502CA01002D
S9030000FC
